:100000000200F9805EB2B73090128000E52324B57B
:10001000E5226480347F4004800080048000800CEE
:10002000E523240FF523E5223400F52230911280D8
:1000300000E52324D2E5226480347F5004800080D0
:10004000048000800CE52324F1F523E52234FFF53C
:10005000223092028002800675220075232DD0E0A6
:10006000D0D032C0D0C0E0809C802F75A800D2AF25
:10007000D2A8D28875900075A00075B000752200D6
:1000800075232D75CB0B75CADC75CDFF75CCFF754F
:10009000C80412009C80FB80002280CF80457C0039
:1000A0007D23AA22AB231201028A2A8B2BD280E461
:1000B000F528F52980080529E52970020528C3E5FA
:1000C00029952B852AF063F080E528648095F0401F
:1000D00002800280E1C280800030CF02800280F97D
:1000E000C2CF2280B9E4F5D075812C78207A0CF645
:0C00F00008DAFC1200690200000200E5C2
:100100000032C000C001ED8BF0A4F8A9F0ED8AF038
:10011000A429F9EC8BF0A429FAE8FBD001D0002245
:00000001FF
