:1000000002015B805EB2853080128000E5232419F6
:10001000E5226480347F4004800080048000800CEE
:10002000E5232419F523E5223400F52230811280DE
:1000300000E52324E6E5226480347F5004800080BC
:10004000048000800CE52324E7F523E52234FFF546
:100050002230820280028006752200752364D0E07F
:10006000D0D032C0D0C0E0809C802DE4F520F521B6
:100070008015E5252590F590AC22AD2312009A0558
:1000800021E52170020520E52124C0E520648034AB
:100090007F5002800280DB2280D18020758DFF742A
:1000A000FFC39DF58BC28FD28E8C328D3380003092
:1000B0008F02800280F9C28E758B002280DE0201E1
:1000C000447400F5B0F5A0F590F580752200752315
:1000D0006475A800D2AFD2A8758800D288D289757D
:1000E0008910752600752702E4F528F529752A0080
:1000F000752B01752C00752D40752E00752FFF7521
:1001000030007531807590008528248529251200DE
:1001100069852D90852624852725120069852F90D5
:10012000852824852925120069853190852A248512
:100130002B25120069759000852824852925120039
:100140006980C2220200C1E4F5D075813478207A3A
:0E01500014F608DAFC1200BE0200000201479D
:00000001FF
